:100000000C9435000C945D000C945D000C945D0024
:100010000C945D000C945D000C945D000C945D00EC
:100020000C945D000C945D000C945D000C945D00DC
:100030000C945D000C945D000C945D000C945D00CC
:100040000C945D000C945D000C9402020C94DC0195
:100050000C945D000C945D000C945D000C945D00AC
:100060000C9434020C945D005E0311241FBECFEF8C
:10007000D8E0DEBFCDBF15E0A0E0B1E0EAE0F1E1FD
:1000800002C005900D92A23AB107D9F726E0A2EA84
:10009000B5E001C01D92A73CB207E1F710E0C5E34F
:1000A000D0E004C02197FE010E949305C433D1071C
:1000B000C9F70E9497030C9483080C940000CF9218
:1000C000DF92EF92FF920F931F93CF93DF936C0118
:1000D0007A018B01C0E0D0E0CE15DF0581F0D801B8
:1000E0006D918D01D601ED91FC910190F081E02D93
:1000F000C6010995892B11F02196EECF7E01C7012B
:10010000DF91CF911F910F91FF90EF90DF90CF90F3
:100110000895FC01538D448D252F30E0842F90E00D
:10012000821B930B541710F0CF96089501970895F2
:10013000FC01918D828D981761F0828DDF01A80FEF
:10014000B11D5D968C91928D9F5F9F73928F90E011
:1001500008958FEF9FEF0895FC01918D828D981780
:1001600031F0828DE80FF11D858D90E008958FEFBD
:100170009FEF0895FC01918D228D892F90E0805C86
:100180009F4F821B91098F7399270895FC01848DDD
:10019000DF01A80FB11DA35ABF4F2C91848D90E0B1
:1001A00001968F739927848FA689B7892C93A0898C
:1001B000B1898C91837080648C93938D848D981316
:1001C00006C00288F389E02D80818F7D80830895A9
:1001D000EF92FF920F931F93CF93DF93EC0181E097
:1001E000888F9B8D8C8D981305C0E889F989808153
:1001F00085FD26C0F62E0B8D10E00F5F1F4F0F738D
:100200001127E02E8C8DE8120CC00FB607FCFACF38
:10021000E889F989808185FFF5CFCE010E94C6006B
:10022000F1CF8B8DFE01E80FF11DE35AFF4FF082F5
:100230009FB7F8940B8FEA89FB89808180620AC09E
:100240009FB7F894EE89FF896083E889F9898081F6
:100250008370806480839FBF81E090E0DF91CF91C5
:100260001F910F91FF90EF900895CF93DF93EC01D2
:10027000888D8823C9F0EA89FB89808185FD05C0C6
:10028000A889B9898C9186FD0FC00FB607FCF5CF00
:10029000808185FFF2CFA889B9898C9185FFEDCF48
:1002A000CE010E94C600E7CFDF91CF91089585ED82
:1002B0008093BC008091BC0084FDFCCF1092F205BD
:1002C00008954091CE05262F30E0240F311D2132B4
:1002D0003105DCF42091F2052430C9F4FC0180E002
:1002E00090E0861758F43091CE052191DC01A2559B
:1002F000BA4FA30FB11D2C930196F3CF8091CE0579
:10030000680F6093CE0580E0089581E0089582E053
:10031000089508958FEF9FEF08958FEF9FEF089551
:100320008091AD0590E09195819591090895CF93C5
:10033000DF93CB01EA01642F0E946101CE01DF91BE
:10034000CF910895CF93DF931F92CDB7DEB7698326
:1003500061E0CE0101960E94610181E090E00F9082
:10036000DF91CF910895089580E090E00895CF93B4
:10037000DF93E2EAF5E0218532852F5F3F4F328738
:100380002187CBE1D0E0C901BE010E946B058283C9
:10039000CB01BE010E946B058583C90169ED72E046
:1003A0000E946B05CB01BE010E946B058087DF9127
:1003B000CF9108950E9499051F920F920FB60F9248
:1003C00011242F933F934F935F936F937F938F935A
:1003D0009F93AF93BF93EF93FF9388E196E00E94C2
:1003E000C600FF91EF91BF91AF919F918F917F9147
:1003F0006F915F914F913F912F910F900FBE0F9092
:100400001F9018951F920F920FB60F9211242F93E1
:100410008F939F93EF93FF93E0912806F091290625
:100420008081E0912E06F0912F0682FD12C090810E
:10043000809131068F5F8F7320913206821751F0C1
:10044000E0913106F0E0E85EF94F958F8093310638
:1004500001C08081FF91EF919F918F912F910F901B
:100460000FBE0F901F9018951F920F920FB60F920C
:1004700011242F933F934F935F936F937F938F93A9
:100480009F93AF93BF93EF93FF938091B900887FC1
:10049000803609F49CC068F5883209F45BC090F49A
:1004A000803109F454C038F4882309F4F2C088304C
:1004B00009F44DC0F2C0883109F44CC0803209F40F
:1004C0005DC0EBC0803409F468C048F4803309F49F
:1004D00055C0883309F0E1C08093F105D4C0803560
:1004E00009F44FC0883509F45DC0883409F0D5C0DF
:1004F000D2C0883909F4C3C0A8F4883709F467C0AA
:1005000038F4883609F463C0803709F460C0C5C088
:10051000883809F4B4C0803909F45FC0803809F024
:10052000BCC05BC0803B09F484C038F4803A09F455
:1005300066C0883A09F47DC0B0C0803C09F4A3C00D
:10054000883C09F4A0C0883B09F486C0A6C080910D
:10055000170610C09091160680911506981770F531
:10056000E091160681E08E0F80931606F0E0EB50C6
:10057000FA4F80818093BB0085EC82C08093F105A7
:100580008AC0E091160681E08E0F80931606809156
:10059000BB00F0E0EB50FA4F8083909116068091FB
:1005A00015066AC0E091160681E08E0F809316064C
:1005B0008091BB00F0E0EB50FA4F80838091F4050E
:1005C000811169C081E08093F30584EA5DC083E016
:1005D0008093F2051092F005CFCF8091F005803224
:1005E00008F04DC0E091F00581E08E0F8093F0059A
:1005F0008091BB00F0E0E053FA4F8083BDCF85ECE3
:100600008093BC001092F2058091F005803230F4A6
:10061000E091F005F0E0E053FA4F10826091F005B0
:1006200070E080ED95E0E0E0F0E009951092F005D3
:1006300034C084E08093F2051092CF051092CE056D
:10064000E0E0F0E009958091CE05811105C081E0E0
:100650008093CE051092AE05E091CF0581E08E0F1C
:100660008093CF05F0E0E255FA4F80818093BB0084
:100670009091CF058091CE05981708F47DCF85E83D
:100680008093BC000AC085EC8093BC001092F205F8
:1006900004C01092F1050E945701FF91EF91BF91A4
:1006A000AF919F918F917F916F915F914F913F910A
:1006B0002F910F900FBE0F901F901895E8E1F6E074
:1006C0001382128288EE93E0A0E0B0E084839583E9
:1006D000A683B7832CE335E03183208325EC30E01B
:1006E0003587248724EC30E03787268720EC30E0FC
:1006F000318B208B21EC30E0338B228B22EC30E0ED
:10070000358B248B26EC30E0378B268B118E128EA6
:10071000138E148EE5EBF6E01382128284839583A8
:10072000A683B7838EE495E09183808308952F920A
:100730003F924F925F926F927F928F929F92AF9271
:10074000BF92CF92DF92EF92FF920F931F93CF93BE
:10075000DF93CDB7DEB7A3970FB6F894DEBF0FBE19
:10076000CDBF8FE0E2E9F5E0DE01119601900D9238
:100770008A95E1F71092A3051092A20581E080937B
:10078000A40581E090E09093A6058093A50584E000
:100790008093A70582E090E09093A9058093A80537
:1007A00087E18093AA058CEE91E49093AC05809349
:1007B000AB058CE595E09F938F930E949E058E017B
:1007C0000F5F1F4F2E012FE0420E511C0F900F9014
:1007D0007801F70181917F01082E000C990B0E948E
:1007E000B4054E145F04A9F78AE090E00E94B405B6
:1007F0008EE695E09F938F930E949E051E01F0E187
:100800002F0E311C0F900F9041018BE1E82EF12C3F
:100810009BE1A92EF80181918F01803249F09FEB75
:10082000980F9A3140F081568A3130F4B82E04C0C6
:10083000BAE1BB2E01C0B92EC090A405D12CE09125
:10084000A705F0E02091AA0530E06090A80570901F
:10085000A9054091A5055091A60559A348A340912B
:10086000A2055091A3055BA34AA3C6018B0D911D60
:10087000B7010E946B054AA15BA1A49ED001A59E71
:10088000B00D1124A80FB91FAA0FBB1FA050BF4F56
:100890008D919C918C199D094B96B7010E946B0517
:1008A000AF01480F511DCA01B7010E946B0548A155
:1008B00059A1A49ED001A59EB00D1124A80FB91F67
:1008C000AA0FBB1FA050BF4F8D919C918E1B9F0BF9
:1008D0004B96B7010E946B05F901E80FF11DCF019E
:1008E000B7010E946B05A69CF001A79CF00D112496
:1008F000E80FF91FEE0FFF1FE050FF4F808191813D
:10090000821B930B4B96B7010E946B05F4018193F8
:100910004F018A3129F08A3128F48F5B8E8F02C013
:10092000F0E2FE8F2E8D822F220F990B0E94B405CC
:100930000E94B7014016510609F06CCF8AE090E0A2
:100940000E94B40580E895E09F938F930E949E05D6
:100950001092A3051092A20581E08093A40581E086
:1009600090E09093A6058093A50584E08093A70569
:1009700082E090E09093A9058093A80587E1809399
:10098000AA058CEE91E49093AC058093AB052E0103
:100990004EE1440E511C0F900F900BE110E05BE113
:1009A000752EF10181911F01E090AA05F12CE091D3
:1009B000A705F0E02091A40530E0C090A205D090FA
:1009C000A305A090A505B090A6058090A8059090DD
:1009D000A905A701480F511DCA01B8010E946B0566
:1009E000789CD001799CB00D1124A80FB91FAA0FD3
:1009F000BB1FA45EBC4F8D919C918E199F094B9695
:100A0000B8010E946B05AF01480F511DCA01B80122
:100A10000E946B057A9CD0017B9CB00D1124A80F1D
:100A2000B91FAA0FBB1FA45EBC4F8D919C918E1B5A
:100A30009F0B4B96B8010E946B05F901E80FF11D61
:100A4000CF01B8010E946B057C9CF0017D9CF00DEC
:100A50001124E80FF91FEE0FFF1FE45EFC4F8081A9
:100A60009181821B930B4B96B8010E946B058A31D2
:100A700029F08A3128F48F5B8F8F02C0F0E2FF8F5C
:100A80002F8D822F220F990B0E94B4050E94B7016F
:100A90004214530409F085CF8AE090E00E94B40527
:100AA00080E090E0A3960FB6F894DEBF0FBECDBFF6
:100AB000DF91CF911F910F91FF90EF90DF90CF903A
:100AC000BF90AF909F908F907F906F905F904F906E
:100AD0003F902F90089597FB072E16F4009407D0AF
:100AE00077FD09D00E947F0507FC05D03EF4909564
:100AF00081959F4F0895709561957F4F0895AA1B2A
:100B0000BB1B51E107C0AA1FBB1FA617B70710F0F8
:100B1000A61BB70B881F991F5A95A9F7809590952A
:100B2000BC01CD010895EE0FFF1F0590F491E02D5B
:100B3000099481E090E0F8940C948308A0E0B0E080
:100B4000E4EAF5E00C945C08AE014B5F5F4FFA01FC
:100B500061917191AF018091C3069091C4060E948A
:100B6000BB05E2E00C9478086091C3067091C4065E
:100B70000E94B2070895ABE0B0E0E1ECF5E00C9420
:100B80004C086C017B018A01FC011782168283816B
:100B900081FFCCC1CE0101963C01F6019381F701A2
:100BA00093FD859193FF81917F01882309F4BAC158
:100BB000853239F493FD859193FF81917F018532D0
:100BC00029F4B60190E00E94B207E7CF912C212CC6
:100BD000312CFFE1F315D8F08B3279F038F4803204
:100BE00079F08332A1F4232D20611DC08D3261F094
:100BF000803369F4232D216016C0832D8260382E46
:100C0000E32DE4603E2E2AC0F32DF8601DC037FCB2
:100C10002DC020ED280F2A3040F08E32B9F436FC7A
:100C200081C1232D2064322E19C036FE06C08AE011
:100C3000989E200D1124922E11C0EAE02E9E200DC8
:100C40001124222EF32DF0623F2E08C08C3621F4A1
:100C5000832D8068382E02C0883641F4F70193FD59
:100C6000859193FF81917F018111B3CF982F9F7D53
:100C70009554933028F40C5F1F4F9FE399830DC068
:100C8000833631F0833771F0833509F059C021C0C4
:100C9000F801808189830E5F1F4F88248394912CF3
:100CA000530113C02801F2E04F0E511CF801A0803F
:100CB000B18036FE03C0692D70E002C06FEF7FEF98
:100CC000C5010E94A7074C018201F32DFF773F2E3B
:100CD00016C0280122E0420E511CF801A080B1800C
:100CE00036FE03C0692D70E002C06FEF7FEFC501D3
:100CF0000E949C074C01F32DF0683F2E820133FCCB
:100D00001BC0822D90E088169906B0F4B60180E2EF
:100D100090E00E94B2072A94F4CFF50137FC859148
:100D200037FE81915F01B60190E00E94B207211069
:100D30002A9421E0821A91088114910471F7E8C085
:100D4000843611F0893641F5F80137FE07C060811D
:100D50007181828193810C5F1F4F08C06081718116
:100D6000072E000C880B990B0E5F1F4FF32DFF769B
:100D70003F2E97FF09C090958095709561957F4FA4
:100D80008F4F9F4FF0683F2E2AE030E0A3010E9472
:100D9000EE07882E861845C0853731F4232D2F7E27
:100DA000B22E2AE030E025C0932D997FB92E8F36E0
:100DB000C1F018F4883579F0B5C0803719F088375C
:100DC00021F0B0C0E92FE061BE2EB4FE0DC0FB2DB6
:100DD000F460BF2E09C034FE0AC0292F2660B22E4F
:100DE00006C028E030E005C020E130E002C020E18C
:100DF00032E0F801B7FE07C0608171818281938182
:100E00000C5F1F4F06C06081718180E090E00E5F33
:100E10001F4FA3010E94EE07882E8618FB2DFF7737
:100E20003F2E36FE0DC0232D2E7FA22E891458F49E
:100E300034FE0BC032FC09C0832D8E7EA82E05C067
:100E4000B82CA32C03C0B82C01C0B92CA4FE0FC031
:100E5000FE01E80DF11D8081803321F49A2D997EE9
:100E6000A92E09C0A2FE06C0B394B39404C08A2D73
:100E7000867809F0B394A3FC11C0A0FE06C0B2149A
:100E800088F4280C922C9B180EC0B21460F4B601A2
:100E900080E290E00E94B207B394F7CFB21418F446
:100EA0002B1802C0982C212CA4FE10C0B60180E3A0
:100EB00090E00E94B207A2FE17C0A1FC03C088E721
:100EC00090E002C088E590E0B6010CC08A2D8678DB
:100ED00059F0A1FE02C08BE201C080E2A7FC8DE2C6
:100EE000B60190E00E94B207891438F4B60180E39D
:100EF00090E00E94B2079A94F7CF8A94F301E80D2C
:100F0000F11D8081B60190E00E94B2078110F5CFFB
:100F1000222009F442CEB60180E290E00E94B2079E
:100F20002A94F6CFF6018681978102C08FEF9FEF5A
:100F30002B96E2E10C946808FC010590615070402A
:100F40000110D8F7809590958E0F9F1F0895FC0192
:100F50006150704001900110D8F7809590958E0FE8
:100F60009F1F08950F931F93CF93DF93FB0123815E
:100F700021FD03C08FEF9FEF2CC022FF16C04681DA
:100F80005781248135814217530744F4A081B181F0
:100F90009D012F5F3F4F318320838C9326813781C2
:100FA0002F5F3F4F3783268314C08B01EC01FB0179
:100FB0000084F185E02D0995892BE1F6D80116967C
:100FC0008D919C911797019617969C938E931697E7
:100FD000CE01DF91CF911F910F910895FA01AA27B9
:100FE000283051F1203181F1E8946F936E7F6E5F6C
:100FF0007F4F8F4F9F4FAF4FB1E03ED0B4E03CD01A
:10100000670F781F891F9A1FA11D680F791F8A1FFC
:10101000911DA11D6A0F711D811D911DA11D20D063
:1010200009F468943F912AE0269F11243019305D1D
:101030003193DEF6CF010895462F4770405D41930E
:10104000B3E00FD0C9F7F6CF462F4F70405D4A335B
:1010500018F0495D31FD4052419302D0A9F7EACF23
:10106000B4E0A6959795879577956795BA95C9F752
:1010700000976105710508959B01AC010A2E069445
:101080005795479537952795BA95C9F7620F731FFE
:10109000841F951FA01D08952F923F924F925F923B
:1010A0006F927F928F929F92AF92BF92CF92DF9278
:1010B000EF92FF920F931F93CF93DF93CDB7DEB7DD
:1010C000CA1BDB0B0FB6F894DEBF0FBECDBF099471
:1010D0002A88398848885F846E847D848C849B84C8
:1010E000AA84B984C884DF80EE80FD800C811B81D6
:1010F000AA81B981CE0FD11D0FB6F894DEBF0FBE05
:0A110000CDBFED010895F894FFCF74
:10110A00050004000B0002000A0006000700110097
:10111A001600090017001A000D0008001900140033
:10112A0000000E001000150001000C00130018004A
:10113A0012000F0003000D000500040011000A0050
:10114A000B0000001700160014000200030019002B
:10115A000F0010000C001300080001000900120023
:10116A0018001A000700060015000E000D000B00FB
:10117A000F0000000A000600190010001700020004
:10118A00010008001A0018000700120009000400F4
:10119A000C00130005000E001600030014001100D5
:1011AA0015000C0000000F00190018000A000900C1
:1011BA001100170014000E000100120008000700B9
:1011CA0004000B000D0013000600150016000500B0
:1011DA0010001A0002000300170010000D000200A0
:1011EA00010007000C00050003001500130016009B
:1011FA0000000B0009000F0006000E001100180085
:10120A000A001A0008001400120019000400140051
:10121A00060016001A000900000010000A00070064
:10122A0018000F0019000D000C0008001700050037
:10123A001500130012000E00110001000200040044
:10124A000B0003001600130017000A001100090022
:10125A0014000700100002000600050018000C0028
:10126A0000000F0019000D0001001A0012000E0004
:10127A000B00040015000300080004001800190000
:10128A0015000E000C000D0008001A0002000900EB
:10129A00100003001600140017000F0013001100BD
:1012AA0006000B00010000000500070012000A00FA
:1012BA001400000016000E000D00030010001500B7
:1012CA0005000F001900020012001A000C000400A9
:1012DA00010013000A000600180011001700080098
:1012EA000B00090007000F001400190004000D008C
:1012FA00100015000900130000000A001100020086
:10130A000B000500120006000E000C000100170079
:10131A0016001A0008000300180007001000140045
:10132A0003001A0001000000050006000D00090074
:10133A000400020015000C00110019001200070039
:10134A00180016000F00130008000A0017000E000C
:10135A000B00060012000A000B0002000100180030
:10136A00170011001300040005000F0000001A0006
:10137A000D000E00030014001000090019000800F7
:10138A00070015000C00160003000A0009001700E8
:10139A001100140005000E000B00100004000100EB
:1013AA001200000015000200070019000F001300C8
:1013BA0018001A00160008000D0006000C000100B3
:1013CA000B0019001A000F00160013000E000D0082
:1013DA00060005001000000011000A0002001700B4
:1013EA0007000C0012000900140015000800040090
:1013FA00030018000C000400030008001A0007008C
:10140A001000050016000E0014000D000600020070
:10141A0011000F000100120018000A00170009004D
:10142A000B00000013001900150005001600170034
:10143A001A0018001000010008000E00040007003E
:10144A0019000D000C0014000A0006001500130014
:10145A0012000000110002000F0009000B00030037
:10146A000E0012000900190017000B000A000700FD
:10147A001A000500030016000D00110015000F00E8
:10148A000800040014000100060018000000020011
:10149A000C00100013001600150009000C000000D3
:1014AA0017001300180007000A001A0014000500AC
:1014BA000600040010000B001200190011000E00B3
:1014CA0003000D000F0001000200080001001000D7
:1014DA000B0005000F00080013001A00170019007E
:1014EA00120018000E00040003000900060015008F
:1014FA000C001100000007000200160014000A0088
:10150A000D00090013000C00180003000E00100063
:10151A001A00170007000A000D001200040011004B
:10152A00000005000B000F0008000100060015006E
:10153A00140019000200160000000000E8005F0015
:10154A0089003501BA009800AC0000000000A20131
:10155A009701B401890190018D018A01706C61695A
:10156A006E746578742020202020203A2000636958
:10157A00706865727465787420202020203A2000F3
:10158A006465637279707465642074657874203A4E
:10159A00200054484953204953204120544553546C
:0215AA0000003F
:00000001FF
